{
    "_format": "hh-sol-artifact-1",
    "contractName": "EulerStratFactory",
    "sourceName": "contracts/EulerStratFactory.sol",
    "abi": [
        {
            "inputs": [],
            "stateMutability": "nonpayable",
            "type": "constructor"
        },
        {
            "anonymous": false,
            "inputs": [
                {
                    "indexed": false,
                    "internalType": "address",
                    "name": "_underlyingToken",
                    "type": "address"
                },
                {
                    "indexed": false,
                    "internalType": "address",
                    "name": "_pool",
                    "type": "address"
                }
            ],
            "name": "NewEulerStrategy",
            "type": "event"
        },
        {
            "inputs": [
                {
                    "internalType": "address",
                    "name": "_underlyingToken",
                    "type": "address"
                },
                {
                    "internalType": "address",
                    "name": "_pool",
                    "type": "address"
                }
            ],
            "name": "deployEulerStrategy",
            "outputs": [
                {
                    "internalType": "address",
                    "name": "deployedStrategy",
                    "type": "address"
                }
            ],
            "stateMutability": "nonpayable",
            "type": "function"
        },
        {
            "inputs": [
                {
                    "internalType": "uint256",
                    "name": "",
                    "type": "uint256"
                }
            ],
            "name": "eulerStrategyList",
            "outputs": [
                {
                    "internalType": "address",
                    "name": "",
                    "type": "address"
                }
            ],
            "stateMutability": "view",
            "type": "function"
        },
        {
            "inputs": [],
            "name": "getAllEulerStrategies",
            "outputs": [
                {
                    "internalType": "address[]",
                    "name": "",
                    "type": "address[]"
                }
            ],
            "stateMutability": "view",
            "type": "function"
        }
    ],
    "bytecode": "0x608060405234801561001057600080fd5b5061141d806100206000396000f3fe608060405234801561001057600080fd5b50600436106100415760003560e01c80638cc4fc1114610046578063c0e6bdae14610076578063fe03908d14610089575b600080fd5b610059610054366004610241565b61009e565b6040516001600160a01b0390911681526020015b60405180910390f35b610059610084366004610274565b61018c565b6100916101b6565b60405161006d919061028d565b600082826040516100ae90610218565b6001600160a01b03928316815291166020820152604001604051809103906000f0801580156100e1573d6000803e3d6000fd5b50600080546001810182559080527f290decd9548b62a8d60345a988386fc84ba6bc95484008f6362f93160ef3e5630180547fffffffffffffffffffffffff0000000000000000000000000000000000000000166001600160a01b038381169190911790915560408051868316815291851660208301529192507f8ecee7eadfe60c0da60bb207d294d4d206579ffb41a1883cd0986dd6040a67d9910160405180910390a192915050565b6000818154811061019c57600080fd5b6000918252602090912001546001600160a01b0316905081565b6060600080548060200260200160405190810160405280929190818152602001828054801561020e57602002820191906000526020600020905b81546001600160a01b031681526001909101906020018083116101f0575b5050505050905090565b61110d806102db83390190565b80356001600160a01b038116811461023c57600080fd5b919050565b6000806040838503121561025457600080fd5b61025d83610225565b915061026b60208401610225565b90509250929050565b60006020828403121561028657600080fd5b5035919050565b6020808252825182820181905260009190848201906040850190845b818110156102ce5783516001600160a01b0316835292840192918401916001016102a9565b5090969550505050505056fe6080604052600180546001600160a01b031990811673931172bb95549d0f29e10ae2d079aba3c63318b317909155600280548216733ebc39b84b1f856fafe9803a9e1eae7da016da36908117909155600380549092161790553480156200006557600080fd5b506040516200110d3803806200110d83398101604081905262000088916200020f565b6200009333620000c1565b600480546001600160a01b0319166001600160a01b038416179055620000b98162000111565b505062000247565b600080546001600160a01b038381166001600160a01b0319831681178455604051919092169283917f8be0079c531659141344cd1fd0a4f28419497f9722a3daafe3b4186f6b6457e09190a35050565b6200011b62000194565b6001600160a01b038116620001865760405162461bcd60e51b815260206004820152602660248201527f4f776e61626c653a206e6577206f776e657220697320746865207a65726f206160448201526564647265737360d01b60648201526084015b60405180910390fd5b6200019181620000c1565b50565b6000546001600160a01b03163314620001f05760405162461bcd60e51b815260206004820181905260248201527f4f776e61626c653a2063616c6c6572206973206e6f7420746865206f776e657260448201526064016200017d565b565b80516001600160a01b03811681146200020a57600080fd5b919050565b600080604083850312156200022357600080fd5b6200022e83620001f2565b91506200023e60208401620001f2565b90509250929050565b610eb680620002576000396000f3fe608060405234801561001057600080fd5b50600436106100885760003560e01c8063715018a61161005b578063715018a6146100f05780638da5cb5b146100f85780639f560dd514610109578063f2fde38b1461011157600080fd5b80632495a5991461008d5780633ccfd60b146100bd5780633e8fa4e5146100d357806347e7ef24146100db575b600080fd5b6004546100a0906001600160a01b031681565b6040516001600160a01b0390911681526020015b60405180910390f35b6100c5610124565b6040519081526020016100b4565b6100c5610336565b6100ee6100e9366004610d2c565b610423565b005b6100ee6105ff565b6000546001600160a01b03166100a0565b6100c5610613565b6100ee61011f366004610d58565b6106fe565b600061012e61078e565b60035460048054604051638948874960e01b81526001600160a01b039182169281019290925260009216906389488749906024016020604051808303816000875af1158015610181573d6000803e3d6000fd5b505050506040513d601f19601f820116820180604052508101906101a59190610d75565b9050806001600160a01b031663441a3e7060006101c0610336565b6040517fffffffff0000000000000000000000000000000000000000000000000000000060e085901b16815260048101929092526024820152604401600060405180830381600087803b15801561021657600080fd5b505af115801561022a573d6000803e3d6000fd5b5050600480546040516370a0823160e01b815230928101929092526001600160a01b031692506370a082319150602401602060405180830381865afa158015610277573d6000803e3d6000fd5b505050506040513d601f19601f8201168201806040525081019061029b9190610d92565b91506103326102b26000546001600160a01b031690565b600480546040516370a0823160e01b815230928101929092526001600160a01b0316906370a0823190602401602060405180830381865afa1580156102fb573d6000803e3d6000fd5b505050506040513d601f19601f8201168201806040525081019061031f9190610d92565b6004546001600160a01b031691906107e8565b5090565b60035460048054604051638948874960e01b81526001600160a01b039182169281019290925260009283929116906389488749906024016020604051808303816000875af115801561038c573d6000803e3d6000fd5b505050506040513d601f19601f820116820180604052508101906103b09190610d75565b6040516370a0823160e01b81523060048201529091506001600160a01b038216906370a08231906024016020604051808303816000875af11580156103f9573d6000803e3d6000fd5b505050506040513d601f19601f8201168201806040525081019061041d9190610d92565b91505090565b61042b61078e565b6004546001600160a01b038381169116146104b35760405162461bcd60e51b815260206004820152602d60248201527f746f6b656e20737570706c696564206e6f7420737570706f727465642062792060448201527f7468697320636f6e74726163740000000000000000000000000000000000000060648201526084015b60405180910390fd5b6104cb336004546001600160a01b0316903084610896565b6001546004546104e8916001600160a01b039182169116836108ed565b6002546003805473ffffffffffffffffffffffffffffffffffffffff19166001600160a01b0392831690811790915560048054604051638948874960e01b81529316908301526000916389488749906024016020604051808303816000875af1158015610559573d6000803e3d6000fd5b505050506040513d601f19601f8201168201806040525081019061057d9190610d75565b6040517fe2bbb15800000000000000000000000000000000000000000000000000000000815260006004820152602481018490529091506001600160a01b0382169063e2bbb15890604401600060405180830381600087803b1580156105e257600080fd5b505af11580156105f6573d6000803e3d6000fd5b50505050505050565b61060761078e565b6106116000610a3b565b565b600061061d61078e565b600454640141dd76009063ac30f2389063cb40788090731643e812ae58766192cf7d2cf9567df2c37e9b7f9073c04b0d3107736c32e19f1c62b2af67be61d63a059073e583769738b6dd4e7caf8451050d1948be717679906001600160a01b03167fffffffffffffffffffffffffe9bc17ed51a7899e6d3082d306a9820d3c816481016106b1576106ae8688610dab565b96505b6004546001600160a01b038084169116036106d3576106d08588610dab565b96505b6004546001600160a01b038083169116036106f5576106f28488610dab565b96505b50505050505090565b61070661078e565b6001600160a01b0381166107825760405162461bcd60e51b815260206004820152602660248201527f4f776e61626c653a206e6577206f776e657220697320746865207a65726f206160448201527f646472657373000000000000000000000000000000000000000000000000000060648201526084016104aa565b61078b81610a3b565b50565b6000546001600160a01b031633146106115760405162461bcd60e51b815260206004820181905260248201527f4f776e61626c653a2063616c6c6572206973206e6f7420746865206f776e657260448201526064016104aa565b6040516001600160a01b0383166024820152604481018290526108919084907fa9059cbb00000000000000000000000000000000000000000000000000000000906064015b60408051601f198184030181529190526020810180517bffffffffffffffffffffffffffffffffffffffffffffffffffffffff167fffffffff0000000000000000000000000000000000000000000000000000000090931692909217909152610a98565b505050565b6040516001600160a01b03808516602483015283166044820152606481018290526108e79085907f23b872dd000000000000000000000000000000000000000000000000000000009060840161082d565b50505050565b80158061098057506040517fdd62ed3e0000000000000000000000000000000000000000000000000000000081523060048201526001600160a01b03838116602483015284169063dd62ed3e90604401602060405180830381865afa15801561095a573d6000803e3d6000fd5b505050506040513d601f19601f8201168201806040525081019061097e9190610d92565b155b6109f25760405162461bcd60e51b815260206004820152603660248201527f5361666545524332303a20617070726f76652066726f6d206e6f6e2d7a65726f60448201527f20746f206e6f6e2d7a65726f20616c6c6f77616e63650000000000000000000060648201526084016104aa565b6040516001600160a01b0383166024820152604481018290526108919084907f095ea7b3000000000000000000000000000000000000000000000000000000009060640161082d565b600080546001600160a01b0383811673ffffffffffffffffffffffffffffffffffffffff19831681178455604051919092169283917f8be0079c531659141344cd1fd0a4f28419497f9722a3daafe3b4186f6b6457e09190a35050565b6000610aed826040518060400160405280602081526020017f5361666545524332303a206c6f772d6c6576656c2063616c6c206661696c6564815250856001600160a01b0316610b7d9092919063ffffffff16565b8051909150156108915780806020019051810190610b0b9190610deb565b6108915760405162461bcd60e51b815260206004820152602a60248201527f5361666545524332303a204552433230206f7065726174696f6e20646964206e60448201527f6f7420737563636565640000000000000000000000000000000000000000000060648201526084016104aa565b6060610b8c8484600085610b96565b90505b9392505050565b606082471015610c0e5760405162461bcd60e51b815260206004820152602660248201527f416464726573733a20696e73756666696369656e742062616c616e636520666f60448201527f722063616c6c000000000000000000000000000000000000000000000000000060648201526084016104aa565b6001600160a01b0385163b610c655760405162461bcd60e51b815260206004820152601d60248201527f416464726573733a2063616c6c20746f206e6f6e2d636f6e747261637400000060448201526064016104aa565b600080866001600160a01b03168587604051610c819190610e31565b60006040518083038185875af1925050503d8060008114610cbe576040519150601f19603f3d011682016040523d82523d6000602084013e610cc3565b606091505b5091509150610cd3828286610cde565b979650505050505050565b60608315610ced575081610b8f565b825115610cfd5782518084602001fd5b8160405162461bcd60e51b81526004016104aa9190610e4d565b6001600160a01b038116811461078b57600080fd5b60008060408385031215610d3f57600080fd5b8235610d4a81610d17565b946020939093013593505050565b600060208284031215610d6a57600080fd5b8135610b8f81610d17565b600060208284031215610d8757600080fd5b8151610b8f81610d17565b600060208284031215610da457600080fd5b5051919050565b80820180821115610de5577f4e487b7100000000000000000000000000000000000000000000000000000000600052601160045260246000fd5b92915050565b600060208284031215610dfd57600080fd5b81518015158114610b8f57600080fd5b60005b83811015610e28578181015183820152602001610e10565b50506000910152565b60008251610e43818460208701610e0d565b9190910192915050565b6020815260008251806020840152610e6c816040850160208701610e0d565b601f01601f1916919091016040019291505056fea2646970667358221220aa2f9725f11e04ee17ca0d92fdbcbcb8191bfec25a3480983e8a73783939aee964736f6c63430008100033a2646970667358221220f343ebd03e9c03075a2be4d6892e3582d652a01c35e15e7b6777b3082431ab4d64736f6c63430008100033",
    "linkReferences": {},
    "deployedLinkReferences": {}
}